:100000000C942A000C943F000C943F000C943F0089
:100010000C943F000C943F000C943F000C943F0064
:100020000C943F000C943F000C943F000C943F0054
:100030000C943F000C943F000C943F000C943F0044
:100040000C943F000C943F000C943F000C943F0034
:100050000C943F0011241FBECFE5D8E0DEBFCDBF1A
:1000600010E0A0E6B0E0E6E4F1E002C005900D92F9
:10007000A636B107D9F70E9441000C94A1000C9458
:100080000000CF93DF9300D000D000D0CDB7DEB713
:1000900081B38E7F81BB82B38E7F82BB81B380624E
:1000A00081BB81B3806481BB81B3806881BB86E002
:1000B000E0E6F0E0DE01119601900D928A95E1F7FD
:1000C00080E090E01BC0809B19C09C012F5F3F4FD8
:1000D000880F991FE1E0F0E0EC0FFD1FE80FF91F1A
:1000E00081E090E0008002C0880F991F0A94E2F737
:1000F00092B3892B82BB8099FECFC90183309105D1
:1001000014F31BC0809B19C00197FC01EE0FFF1F69
:1001100021E030E02C0F3D1FE20FF31F21E030E023
:10012000008002C0220F331F0A94E2F72095309519
:1001300032B3232322BB8099FECF1816190614F37D
:06014000BFCFF894FFCFD1
:06014600050006000700A1
:00000001FF
