S02100005468726565204C65647320776974686F7574205377697463682E737265639D
S11300000C942A000C943F000C943F000C943F0085
S11300100C943F000C943F000C943F000C943F0060
S11300200C943F000C943F000C943F000C943F0050
S11300300C943F000C943F000C943F000C943F0040
S11300400C943F000C943F000C943F000C943F0030
S11300500C943F0011241FBECFE5D8E0DEBFCDBF16
S113006010E0A0E6B0E0E4E5F1E002C005900D92F6
S1130070A636B107D9F70E9441000C94A8000C944D
S11300800000CF93DF9300D000D000D0CDB7DEB70F
S113009081B3806181BB81B3806281BB81B38064A1
S11300A081BB81B3806881BB86E0E0E6F0E0DE01DD
S11300B0119601900D928A95E1F720E030E01FC07F
S11300C042B3F901EE0FFF1F81E090E08C0F9D1FFA
S11300D0E80FF91F81E090E0008002C0880F991FAB
S11300E00A94E2F7842B82BB9FEF49E688E19150A2
S11300F040408040E1F700C000002F5F3F4F2330B5
S11301003105F4F222E030E020C042B3F901EE0FF1
S1130110FF1F81E090E08C0F9D1FE80FF91F81E025
S113012090E0008002C0880F991F0A94E2F780953E
S1130130842382BB9FEF49E688E191504040804090
S1130140E1F700C00000215031093323F4F6B5CFA4
S1070150F894FFCF4D
S10901540500060007008F
S9030000FC
