:100000000C942A000C943F000C943F000C943F0089
:100010000C943F000C943F000C943F000C943F0064
:100020000C943F000C943F000C943F000C943F0054
:100030000C943F000C943F000C943F000C943F0044
:100040000C943F000C943F000C943F000C943F0034
:100050000C943F0011241FBECFE5D8E0DEBFCDBF1A
:1000600010E0A0E6B0E0E6E2F1E002C005900D92FB
:10007000A836B107D9F70E9441000C9491000C9466
:100080000000CF93DF93CDB7DEB728970FB6F89473
:10009000DEBF0FBECDBF88E0E0E6F0E0DE011196E6
:1000A00001900D928A95E1F781B3806181BB81B3A4
:1000B000806281BB81B3806481BB81B3806881BB76
:1000C00020E030E02AC062B3F901EE0FFF1F41E0EB
:1000D00050E04C0F5D1FE40FF51F81E090E0AC0194
:1000E000008002C0440F551F0A94E2F7462B42BB22
:1000F0005FEF69E648E1515060404040E1F700C0E1
:10010000000042B3008002C0880F991F0A94E2F7F2
:100110008095842382BB2F5F3F4F2430310598F2B6
:06012000CFCFF894FFCFE1
:080126000500060007000400BB
:00000001FF
