:020000040800F2
:1000000000280020F9010008490200084902000800
:1000100049020008490200084902000800000000E7
:10002000000000000000000000000000490200087D
:1000300049020008000000004902000849020008C7
:100040004902000849020008490200084902000864
:100050004902000849020008490200084902000854
:100060004902000849020008490200084902000844
:100070004902000849020008490200084902000834
:100080004902000849020008490200084902000824
:100090004902000849020008490200084902000814
:1000A0004902000849020008490200084902000804
:1000B00049020008490200084902000849020008F4
:1000C00049020008490200084902000849020008E4
:1000D00049020008490200084902000849020008D4
:1000E0004902000849020008000000004902000817
:1000F00049020008490200084902000849020008B4
:1001000049020008490200084902000849020008A3
:100110004902000849020008490200084902000893
:100120004902000849020008490200084902000883
:1001300010B5054C237833B9044B13B10448AFF321
:1001400000800123237010BD040000200000000087
:100150009402000808B5034B1BB103490348AFF3F1
:10016000008008BD00000000080000209402000884
:1001700080B483B000AF1D4B1B681C4A43F00403DE
:1001800013601B4B1B681A4A23F470031360184B4F
:100190001B68174A43F400131360164B1A68138840
:1001A0006FF38E331380134B1A68138843F4005394
:1001B000138000237B6002E07B6801337B607B68F7
:1001C00041F287329342F7DD0A4B1A6813886FF3C6
:1001D0004D33138000233B6002E03B6801333B60FA
:1001E0003B6841F287329342F7DDDCE718100240AA
:1001F00004080140000000200D488546AFF3008050
:100200000C480D490D4A002302E0D458C450043371
:10021000C4188C42F9D30A4A0A4C002301E0136047
:100220000432A242FBD300F011F8FFF7A1FFFEE772
:10023000002800200000002004000020B402000874
:100240000400002020000020FEE7000070B500251B
:100250000C4E0D4CA41BA410A54209D100F01AF8B5
:1002600000250A4E0A4CA41BA410A54205D170BD5E
:1002700056F8253098470135EEE756F8253098476F
:100280000135F2E7AC020008AC020008AC0200083D
:10029000B0020008F8B500BFF8BC08BC9E46704725
:0C02A000F8B500BFF8BC08BC9E467047D3
:0402AC0055010008F0
:0402B0003101000810
:0402B4000C080140F1
:04000005080001F9F5
:00000001FF
