S01900004C43445F4B65797061645F4472697665722E73726563B0
S11300000C942A000C9447000C9447000C9447006D
S11300100C9447000C9447000C9447000C94470040
S11300200C9447000C9447000C9447000C94470030
S11300300C9447000C9447000C9447000C94470020
S11300400C9447000C9447000C9447000C94470010
S11300500C94470011241FBECFE5D8E0DEBFCDBF0E
S113006010E0A0E6B0E0E0EBF3E002C005900D92F2
S1130070A038B107D9F720E0A0E8B0E001C01D9294
S1130080A138B207E1F70E94C5010C94D6010C9483
S1130090000081B38E7F81BB81B38D7F81BB81B32F
S11300A08B7F81BB81B3877F81BB81B3806181BB3F
S11300B081B3806281BB81B3806481BB81B380687A
S11300C081BB8FEF82BB089570E098C042B3E0E635
S11300D0F0E081E090E09C01008002C0220F331F19
S11300E00A94E2F7242B22BB42B39C01048002C091
S11300F0220F331F0A94E2F7242B22BB42B39C0144
S1130100008402C0220F331F0A94E2F7242B22BB7F
S113011042B39C01048402C0220F331F0A94E2F705
S1130120242B22BB22B334E07302F0011124E05AE1
S1130130FF4F008002C0880F991F0A94E2F7809550
S1130140822382BB50E056C080B394E05902F00190
S11301501124E059FF4F6081462F21E030E0062E44
S113016002C0220F331F0A94E2F790E08223932304
S113017002C0959587956A95E2F7892BD1F580B3EE
S113018090E082239323042E02C0959587950A94C8
S1130190E2F7892BA1F3713091F01CF4772331F04D
S11301A028C07230A9F07330E1F023C0552359F10F
S11301B0513059F1523059F15330D9F42AC05523F2
S11301C051F1513051F1523051F1533091F429C071
S11301D0552349F1513049F1523049F1533049F432
S11301E028C0552341F1513041F1523041F153308F
S11301F041F15F5F54300CF4A7CF7F5F74300CF48F
S113020065CF8EE4089587E3089584E3089581E338
S1130210089581E2089588E3089585E3089582E3CB
S1130220089580E3089589E3089586E3089583E3B8
S113023008958DE308958FE208958AE208958DE28A
S113024008958BE2089588B3886088BB8FEC97E0AB
S11302500197F1F700C0000088B3877F88BB089539
S11302601ABA88B3846088BB88B38D7F88BB8AB38D
S1130270806F8ABB88B38B7F88BB0895CF93C82FC8
S11302800E943001CBBB88B38D7F88BB88B38B7F42
S113029088BB8FEC97E00197F1F700C000000E9443
S11302A02301CF910895813039F4603168F480E8F6
S11302B0860F0E943E010895823031F4603220F4AA
S11302C080EC860F0E943E01089581E00E943E0169
S11302D008958FE39CE90197F1F700C000000E94A4
S11302E0300187B3826087BB87B3846087BB87B3E1
S11302F0886087BB88B38D7F88BB88B38B7F88BBBE
S113030088B3877F88BB8FEF8ABB8FE295E701971D
S1130310F1F700C000000E94650188E30E943E01DD
S11303208FE00E943E0186E00E943E0180E80E9428
S11303303E010895CF93C82F0E9430018091800020
S1130340803151F460E082E00E945301809180008A
S11303508F5F809380000EC0803249F40E94650153
S113036060E081E00E9453011092800003C08F5F1F
S113037080938000CBBB88B3826088BB88B38B7FBB
S113038088BB0E942301CF9108950E9469010E94B5
S113039049000E946400813219F08E34D1F303C005
S11303A00E946501F6CF0E949A01F3CFF894FFCF23
S11303B00400000005000000060000000700000023
S11303C00000000001000000020000000300000023
S9030000FC
